:100000000C9408030C9440030C9440030C94463465
:100010000C9440030C9440030C9440030C94400354
:100020000C9440030C9440030C9481320C9459338B
:100030000C9436320C9440030C9440030C9440030F
:100040000C9440030C9440030C9440030C94400324
:100050000C9440030C945D320C9440030C944003C8
:100060000C9440030C9440030C9440030C94400304
:100070000C9440030C9440030C9440030C944003F4
:100080000C9440030C9440030C9440030C944003E4
:100090000C9440030C9440030C9440030C944003D4
:1000A0000C9440030C9440030C9440030501098018
:1000B000A101850319012AB700150126B700950192
:1000C00075108100C0050C0901A101850419012AE0
:1000D000A002150126A002950175108100C005013E
:1000E0000906A1018506050719E029E71500250184
:1000F0009508750181020507190029EF15002501F2
:1001000095F075018102050819012905950575010C
:100110009102950175039101C00660FF0961A1017B
:100120000962150026FF00952075088102096315F4
:100130000026FF00952075089102C005010906A15F
:1001400001050719E029E7150025019508750181CA
:10015000029501750881010507190029FF15002680
:10016000FF0095067508810005081901290515008D
:100170002501950575019102950175039101C00056
:10018000000000000000000000000000000000006F
:10019000000000000000000000000000000000005F
:1001A0000000007E0F00D4FFFFFFC70000007800B2
:1001B000000000000000002A2B28000000000000C2
:1001C0000000000000000000000029000000002CDA
:1001D0001E3420212224342627252E362D37382779
:1001E0001E1F202122232425263333362E37381F85
:1001F0000405060708090A0B0C0D0E0F1011121347
:100200001415161718191A1B1C1D2F3130232D35E4
:100210000405060708090A0B0C0D0E0F1011121326
:100220001415161718191A1B1C1D2F3130354C09BF
:10023000025B00030100A0FA0904000001030101B0
:100240000009211101000122440007058103080073
:10025000010904010002030000000921110100014D
:100260002222000705820320000107050303200066
:10027000010904020001030000000921110100012D
:10028000226D000705840320000112010002000016
:100290000008A42702030001010203011C037600E9
:1002A000690061006C003A006600360034006300AB
:1002B00032006200330063000000120370006F0020
:1002C0007400610074006F003300380000000C03FC
:1002D0007500320037006100340000000403090497
:1002E000290014001A00080015001700E00004009F
:1002F0001600070009000A00E1001D001B000600AF
:100300001900050000000000E20000002C41000080
:100310001C0018000C00120013002D000B000D0033
:100320000E000F00283100001100100036003700C9
:10033000E5000000215200002252000000000000F1
:100340002B000100010001000100010001001E005E
:100350001F002000210022000100230024002500AE
:10036000260027000000000001000000010000003E
:10037000400031002F00300035002A003E002602E8
:1003800027023300283100002D022E0034003800EF
:100390000100000001000000B85200000000000051
:1003A00001000100010001000100010001003A000C
:1003B0003B003C003D003E0001003F00400041008A
:1003C00042004300000000000100000001000000A6
:1003D000460001004B004E0001004C004A000100A5
:1003E00052000100281400004D00500051004F0041
:1003F0000100000063520000010000000000000046
:1004000001002078227821780100010039000100E4
:1004100001000100010001000100010001000100D4
:1004200001000100000000000100000001000000C8
:1004300001000100010001000100010001000100B4
:100440000100010001000000AA00A900A800B000FE
:100450000100000001000000010000000000000099
:10046000010001004905E314F91400000200020034
:100470004505E314F9140000030001004A05E314E4
:10048000F9140000040002002F05E314F914CC064F
:10049000050001004B05E314F914000006000200FA
:1004A0003105E314F9140000070002004705E314C6
:1004B000F9140000080001004C05E314F9140000D1
:1004C000120002004D05E314F914000013000200AD
:1004D0004F05E314F9140000140001005105E31462
:1004E000F9140000150000000000D50607100000F8
:1004F000FD377A585A000004E6D6B44602002101BE
:1005000016000000742FE5A3E001D900DD5D003D79
:100510008889C65436C3174FE4E46966E0D2F13ADD
:100520006A5B8E4B4DD429EE3E4375DA0F2E1806CA
:1005300000A812EDB06B3CC9653DED242368FD2990
:10054000490F19D4727CC4100885570D361D5A40C6
:10055000AB25DD0094C3907DEE8854A5D3F6246DC1
:10056000570F1B222D7DB3B7087A71ED4D29E86E28
:10057000F4AE599FC6021C682B7B3125E6050C6B37
:10058000C3DC46AACC03B7963CF4D03B4441A91245
:10059000DE8CACCAAA10E5F7C98E70705A6AD5A96C
:1005A000AE38432BE7882F1457A3BF7D50F1A20B21
:1005B000A7690BD3DB5E5A4F251F2122507AA94031
:1005C000318B1CEFE1C5A367A3B9A45557352A4C5D
:1005D000DE6182669CCBCA9A1E38EBA345653099D2
:1005E00095B78AF2879401D923E0630000000000E8
:1005F0005CF4717DB0F084440001F901DA0300007D
:1006000018520787B1C467FB020000000004595A62
:1006100011241FBECFEFDAE0DEBFCDBF04B603FE6C
:1006200018C08091570590915805A0915905B09137
:100630005A058730904BA740B04B59F4109257059C
:10064000109258051092590510925A05E0E0F8E30F
:10065000099511E0A0E0B1E0E4E2FDE602C00590FA
:100660000D92A039B107D9F725E0A0E9B1E001C0AA
:100670001D92A735B207E1F70E94FF2A0C94353688
:100680000C9400009C019A9581159F4118F5F90181
:10069000EE27F270832F8170B90166277470A9016B
:1006A0004427587034FF0CC08295807FEF2B09F0EF
:1006B0008062672B09F08064452B69F0806808959B
:1006C000EF2B09F08260672B09F08460452B19F04D
:1006D0008860089580E00895CF93DF93EB010E9436
:1006E0004203FE010995DF91CF910895282F92953D
:1006F0009F70963091F060F4925F9F70923030F46A
:1007000081E0203F79F030F4283E30F080E0089519
:100710009A5FF3CF243FD1F7089581E0283EE0F3BC
:10072000213FF9CF089580932D05089580932E05DC
:10073000089521E030E001C0220F8A95EAF7809108
:100740002E05822B0E949603089521E030E0A90136
:1007500002C0440F551F8A95E2F7CA018095909117
:100760002E0589230E9496030895292F983098F525
:10077000863088F590E036E0239F800D911D11248E
:10078000282F277041E001C0440F2A95EAF723E0A3
:10079000969587952A95E1F7FC01EE0FFF1FE80F6C
:1007A000F91FE754FC4F20E030E070E05191DF0189
:1007B0001197CB01022E02C0969587950A94E2F715
:1007C000817081958527842385278C932F5F3F4FE8
:1007D0002330310559F70895292F983078F5863060
:1007E00068F590E036E0239F800D911D1124682F5D
:1007F000677023E0969587952A95E1F7FC01EE0F47
:10080000FF1FE80FF91FE754FC4F40E050E080E085
:10081000219130E0062E02C0369527950A94E2F722
:1008200021703327042E01C0220F0A94EAF7822B8D
:100830004F5F5F4F4330510559F7089580E00895A9
:1008400090912E0521E030E0F90101C0EE0F8A956C
:10085000EAF7D90102C0AA0FBB1F6A95E2F7EA2B9B
:1008600001C0220F4A95EAF7892F8E23E81305C0AD
:10087000892F822B0E94960308952095822F892329
:10088000F9CF8091670390916603981301C0089592
:100890008F5F8770FACF90917B0480958923809336
:1008A0007B04282F2770211111C0891779F09091AE
:1008B000540592FF0BC08695869586950E94A503E8
:1008C00010927B0410927D0410927C040895909104
:1008D0007804982B909378040895982F90958091A0
:1008E000780489238093780408958091770488237D
:1008F00031F01092770410927604109275040895E6
:10090000803E9105D1F1C8F48133910509F47FC08F
:1009100048F48932910509F46FC08A32910509F4CF
:100920007DC0089589339105E1F082389105C9F0C1
:100930008533910509F45BC00895843E9105D1F19A
:1009400048F4823E910531F1833E910541F181EEFB
:1009500090E00895863E9105C1F1873E9105E1F151
:100960000895209153052370211165C020915405ED
:1009700023FF14C089E290E008952091530520FDE3
:1009800043C03091540530FF09C024FF4EC080E0C1
:1009900090E008952091530522FDF7CF089520910E
:1009A000530522FD45C03091540530FD44C024FF5D
:1009B000F5CFEDCF2091540521FFF0CF8091530565
:1009C00084FDE5CF87EE90E008952091530523FF45
:1009D000E5CF24FDDCCFF6CF2091530523FD2EC0BB
:1009E0003091540531FFE3CF84EE90E008952091DB
:1009F000530525FFD3CFBECF2091530525FD21C040
:100A00002091540523FFCACF89E390E008952091F7
:100A1000530526FFC3CF8AE290E008952091530545
:100A200026FFBCCF81E390E0089583EE90E0089527
:100A300082EE90E0089580EE90E0089586EE90E0DA
:100A4000089585E390E0AACF9091530592FF10C0DE
:100A500041E0282F2471243009F040E031E0282FB4
:100A60002871283009F030E0431711F02CE082277C
:100A700093FF10C041E0282F2471243109F040E099
:100A800031E0282F2871283109F030E0431711F0A8
:100A90002CE082273091540530FF10C051E0282F00
:100AA0002171213009F050E041E0282F28712830D1
:100AB00009F040E0541711F029E0822731FF10C0FF
:100AC00041E0282F2171213109F040E031E0282F49
:100AD0002871283109F030E0431711F029E082270E
:100AE00094FD877E08951F93CF93DF930E94800427
:100AF000EC01811522E5920708F053C0811540E50D
:100B0000940708F0DDC0803E9105F8F48D3C910516
:100B100008F0AEC0883A910580F4853A910508F056
:100B200099C08130910521F00497813A910550F4E4
:100B3000CE01DF91CF911F910895885A91094B976B
:100B400008F48BC0C0E0D0E0F3CF811550E49507E6
:100B5000F8F4C11580E2D80708F0CBC0C83ED10533
:100B600038F3CE019A9581159F4160F78D2F0E9431
:100B70002405182FCE0199270E948004212F30E0F0
:100B8000322F2227E901CC27DF71C82BD92BD0CFF8
:100B900099270E948004CC27DF70C82BD92BD06AFC
:100BA000C7CF803842E59407C8F5803652E59507EF
:100BB00008F067C0C03482E5D807B0F08C2F869566
:100BC0008695877020E2829FC0011124C37021E0C6
:100BD00030E0A90102C0440F551FCA95E2F7EA01AF
:100BE000C82BD92BDC68A4CFC03252E5D50708F05A
:100BF00041C08C2F8695869520E2829FC0011124EA
:100C0000C37021E030E0A90102C0440F551FCA950E
:100C1000E2F7EA01C82BD92BDD688ACF803C52E588
:100C2000950760F48F71C03AD24508F03FC090E05C
:100C3000982F8827EC01C46FD06A7ACF805C9245E8
:100C4000809708F07FCFDC2FCC27CC27DF71C06FD7
:100C5000D06A6ECFA497D0646BCFC85AD0E0CC0FC7
:100C6000DD1FC75ADE4F0990D881C02DD46460CFF4
:100C7000D0655ECFCF71D0E0DC2FCC27C16FD06ABA
:100C800057CF86958695877020E2829FC0011124F8
:100C9000C37021E030E0A90102C0440F551FCA957E
:100CA000E2F7EA01C82BD92BDA6842CF0E9424056B
:100CB000C82FD0E0DC2FCC27CC27DF71D06238CF13
:100CC0008F710E94240565E0D695C7956A95E1F776
:100CD000CF70D0E0DC2FCC27282F30E084FF05C078
:100CE00054E0220F331F5A95E1F7C22BD32BD06962
:100CF0001FCF8D2F8F710E942405182FCE019927A9
:100D00000E948004212F30E0322F222722273F71BA
:100D1000282B392BE901D2CF80E00895F894E82FF1
:100D2000E295EF70F0E041A18F7021E030E0B90171
:100D300002C0660F771F8A95E2F7CB01962F909538
:100D4000942391A392A1892B82A37894089581156D
:100D50002CE7920741F42091150330911603232BC1
:100D600011F480E090E00895E6EEF3E080E090E09A
:100D70006FE07AE246E35AE22BEA3AE2778366834F
:100D80005187408733872287978786870196709699
:100D90008830910599F7089580912F05909130053D
:100DA00090930C0180930B010895A0E0B0E0EBED6F
:100DB000F6E00C946735FB018FEF9FEF443051054F
:100DC00008F465C04091530541FB882780F990E005
:100DD000880F991F42FBAA24A0F8B12CAA0CBB1CB7
:100DE000AA0CBB1C8A299B2940FB882480F8912CE3
:100DF0008829992943FBCC24C0F8D12C53E0CC0C92
:100E0000DD1C5A95E1F78C299D2944FBEE24E0F87E
:100E1000F12C64E0EE0CFF1C6A95E1F78E299F2906
:100E200045FB002700F910E075E0000F111F7A95CF
:100E3000E1F7802B912B46FB222720F9C22F20E0DF
:100E4000D22FA6E0CC0FDD1FAA95E1F78C2B9D2BAE
:100E500047FB442740F920E8429FA0011124842B3E
:100E6000952B20915405322F3170932B26952170AC
:100E7000B22FBB0FA0E08A2B9B2B092E000CAA0BD4
:100E8000BB0B80839183A283B38380E090E0CDB7D6
:100E9000DEB7ECE00C948335AC0123E096958795A2
:100EA0002A95E1F78E719927FC01EC51FE4F0190D4
:100EB000F081E02D4F70552721E030E002C0220F75
:100EC000331F4A95E2F7662341F0E22BF32B8C5156
:100ED0009E4FDC01ED93FC93089520953095E2231D
:100EE000F323F5CF1092BF041092BE04EEE7F4E0B6
:100EF0008581811102C014821682379684E0E63B18
:100F0000F807B1F70895AC013091C1046091C004B5
:100F1000232F621301C00895822F90E0FC01EE0F91
:100F2000FF1FEA54FB4F0190F081E02DE417F50715
:100F300091F467E0649FF001659FF00D1124E25881
:100F4000FB4F41E044832313E6CF0196837099273A
:100F50008093C10408950196282F2370DACFFC01F5
:100F60008481862381110AC082818823B9F0682395
:100F7000908593FF05C081E061110FC080E0089566
:100F8000282F22952F708F70282B962F92959F7067
:100F90006F70962B81E02913F1CF089581E0FDCF8A
:100FA000FA01309709F0099508958091300388235C
:100FB00059F0E0915C03F0915D03309729F00190C6
:100FC000F081E02D0995089580E00895A3E0B0E058
:100FD000ECEEF7E00C9471359C018091E101909169
:100FE000E20182179307A1F03093E2012093E1011F
:100FF000E0915C03F0915D03309751F083E08983C9
:101000003B832A830084F185E02DCE01019609956A
:101010002396E2E00C948D35A3E0B0E0E2E1F8E045
:101020000C9471359C018091DF019091E001821751
:101030009307A1F03093E0012093DF01E0915C037E
:10104000F0915D03309751F084E089833B832A83DC
:101050000084F185E02DCE01019609952396E2E00A
:101060000C948D3590912D019923C1F090915305E9
:1010700097FF14C0E82FE695E695E695803FF8F4D3
:10108000F0E0E656FE4F877021E030E001C0220F0D
:101090008A95EAF78281822B82830895A4E9B1E0E0
:1010A000EFEF90E02D91821751F0EF3F19F42111ED
:1010B00001C0E92F9F5F9630A9F7EF3F09F408952B
:1010C0000E2E000CFF0BEE56FE4FE6CF90912D0139
:1010D0009923E1F09091530597FF18C0E82FE6950A
:1010E000E695E695803FF0F4F0E0E656FE4F877017
:1010F00021E030E0A90102C0440F551F8A95E2F7B4
:10110000CA0180959281892382830895E4E9F1E000
:101110009191891303C0DF0111971C9251E0EA39C4
:10112000F507B1F708952FB7F8948091DB019091FE
:10113000DC01A091DD01B091DE012FBF0895809107
:10114000310590913205892B91F00E9493082091EE
:10115000750430917604AC01421B530B9A0181E077
:1011600040913105509132052417350708F480E08D
:1011700081700895CF93DF93C091780480917A04B1
:10118000C82B80917704882329F1809131059091B3
:101190003205892B29F00E949F0881110E94750455
:1011A000D091770480912D018823F1F0809153052F
:1011B00087FF1AC02CE931E08DE190E0F901408110
:1011C0002F5F3F4F41119F5F8150C0F791110E94E7
:1011D0007504CD2B8091D60380958C239091D503F7
:1011E000892BDF91CF91089524E931E085E0E5CFA7
:1011F0009091540592FF10C098E0899F90011124AE
:10120000622B60937B040E9499030E949308909341
:101210007D0480937C0408950E9499030895909121
:101220007704292F2823222361F080958923809336
:101230007704882339F00E94930880937504909373
:101240007604089580E090E0F8CFCF93C82F809186
:10125000540582FF0CC0809177048C1741F00E94E6
:1012600093089093760480937504C0937704CF918C
:101270000895A4E0B0E0EFE3F9E00C9471358FB786
:10128000F8942091DB013091DC014091DD01509117
:10129000DE0129833A834B835C838FBF69817A8126
:1012A0008B819C812496E2E00C948D35A4E0B0E023
:1012B000ECE5F9E00C94713580913003882371F0EE
:1012C0000E94390969837A838B839C8369817A813F
:1012D0008B819C812496E2E00C948D350E94390923
:1012E00069837A838B839C8380913203909133034B
:1012F000A0913403B091350329813A814B815C81FF
:10130000280F391F4A1F5B1F29833A834B835C8355
:10131000DDCF9C014FB7F8948091DB019091DC0107
:10132000A091DD01B091DE014FBF821B930B0895A8
:10133000A4E0B0E0EEE9F9E00C946F35462F572FAA
:10134000BC012FB7F8948091DB019091DC01A09152
:10135000DD01B091DE012FBF8C019D01041B150B37
:10136000260B370BC901B8012496E4E00C948B35A9
:10137000A6E0B0E0EEEBF9E00C946D357C01009155
:10138000DC031091DD032091DE032E838091DF03C7
:101390008D83B801822F9D810E949809643F71401E
:1013A0008105910518F10E9439098B018E839D8377
:1013B00082E390E0A0E0B0E000930003109301030B
:1013C0002E81209302032D81209303038093FC023E
:1013D0009093FD02A093FE02B093FF02E092DA0325
:1013E000F092DB032696E6E00C94893584EF91E0D9
:1013F000A0E0B0E0E1CF88E19CE00FB6F894A895BA
:10140000809360000FBE90936000FFCF8091DA015F
:1014100008950895FC019B018091D0019091D10124
:101420008617970740F0672B29F48091E8008E77A4
:101430008093E800C90140E0009741F4411106C0E3
:101440008091E80082FF2FC080E00895209117036B
:101450002223A9F12530A9F12091E80023FD2DC018
:101460002091E80022FDECCF2091E80020FFE4CF9E
:101470003091F3002091F200009719F028303105E7
:1014800058F041E02830310509F040E02091E800B3
:101490002E772093E800D0CF41914093F10001973F
:1014A0002F5F3F4FE9CF80911703882341F08530AC
:1014B00041F08091E80083FFC3CF81E0089582E08E
:1014C000089583E008958091CA0187FF13C0809139
:1014D000E80082FF06C08091E8008B778093E800E7
:1014E00004C0809117038111F2CF089580911703F2
:1014F0008823D9F38091E80080FFF8CF8091E8003D
:101500008E77ECCF2091E4003091E50095E6A901BB
:101510008091EC008170882331F08091E80080FF99
:1015200006C080E008952091E80022FD1BC0809154
:101530001703882391F0853091F08091EB0085FDB1
:1015400010C02091E4003091E5004217530701F3E9
:1015500091509111DCCF84E0089582E0089583E0FA
:10156000089581E00895E8EDF0E080818E7F80832A
:101570001092E2001092DA001092E100A0EEB0E0CA
:101580008C9181608C9380818F77808319BCA7EDCB
:10159000B0E08C918E7F8C9380818F7E80831092BF
:1015A000C9010895FC01AC014C5F5F4F8FEF91E3DF
:1015B0002191822728E030E087FF0BC0880F892720
:1015C0002150310921153105B9F7E417F50781F7E5
:1015D0000895880FF5CF982FE42FE2709093E900DB
:1015E000891308C0762F242F50E0E11111C091E03B
:1015F000980FF4CF7091EC002091ED005091F00025
:1016000021FD06C09F5F973049F78093E900089558
:101610003091EB003E7F3093EB003091ED003D7F49
:101620003093ED003091EB0031603093EB0070931C
:10163000EC002093ED005093F0002091EE0027FD88
:10164000E1CF0895A0E0B0E0E8E2FBE00C946B3558
:10165000C8EDD0E088818F7E8883E7EDF0E080815F
:101660008160808384E082BF81E08093C9018881AA
:101670008E7F888302EE10E0F80110821092DA006B
:1016800081EEC82ED12CF601108288818F77888355
:1016900088818068888388818F7D888319BC1092B7
:1016A00017031092C8011092F2021092C70190EE37
:1016B000E92EF12CF70180818B7F80838881816006
:1016C000888342E060E080E00E94EB0AF6018081BE
:1016D0008E7F8083F8018081816080838081886033
:1016E0008083F70180818E7F8083888180618883F9
:1016F000CDB7DEB7E8E00C9487359C0121153105A4
:1017000009F408958FE99FE00197F1F700C0000008
:1017100021503109F3CF81E08093E00080E2809393
:10172000D8001092C9008FE19EE40197F1F700C044
:10173000000087E090EBDC018093570590935805FB
:10174000A0935905B0935A0588E19CE00FB6F89430
:10175000A895809360000FBE90936000FFCF0F9319
:101760001F93CF93DF93EB018A019091170394307D
:1017700079F58093E9008FEF9091E80095FD07C01F
:1017800095ED9A95F1F7000081508111F5CF809188
:10179000E80085FF1DC00E94820A811114C080915B
:1017A000E80085FD06C08091E8008E778093E80010
:1017B000F2CF88818093F1000150110901151105C4
:1017C00011F02196ECCF8091E8008E778093E800AD
:1017D000DF91CF911F910F910895CF93DF93D82F71
:1017E000C92F48E050E0682F792F81E00E94AF0BAD
:1017F00088E0ED2FFC2FA2EDB1E001900D928A95CB
:10180000E1F7DF91CF910895BC0140E250E084E020
:101810000E94AF0B0895BC0143E050E084E00E94B9
:10182000AF0B0895A0E0B0E0E8E1FCE00C9469356E
:10183000F82EE92EB62EA72E8A0180911803CC240B
:10184000C394D12C8A3018F48AE0C82ED12CC1E080
:10185000D0E06B2D7A2D8F2D9E2DF80109958111E9
:1018600016C02196CC16DD0694F0CC9FC001CD9F0A
:10187000900D900D112420E030E045E34A95F1F7FA
:1018800000002F5F3F4F28173907B9F7E2CFCDB7D8
:10189000DEB7EAE00C9485359091540592FB22273F
:1018A00020F9281779F080FB92F990935405609104
:1018B00053057091540584E090E00E94173682E051
:1018C0000E944B0408951F93CF93DF93962F122FFE
:1018D000632F8430D8F49830C8F44630B8F4C42F5D
:1018E000D0E0CC0FDD1F2CE0929FC00DD11D112444
:1018F00090E6899FC00DD11D1124CE0189960E94CA
:10190000F935612FCE018A960E94F935DF91CF918A
:101910001F910895CF93DF93CDEBD2E060E0CE012D
:101920000E94F9352196C11584E0D807B9F7DF91F7
:10193000CF910895882381F06CE285E290E00E94C7
:10194000F93567E286E290E00E94F9356DE487E2BE
:1019500090E00E94F93508956FEF85E290E00E94D3
:10196000F9356FEF86E290E00E94F9356FEFEFCF27
:101970000F931F93CF93DF930FE215E0C9EAD1E0F5
:10198000CE010E94DB35F80161918F01861719F0B5
:10199000CE010E94F9352196CD3CF1E0DF0781F7B9
:1019A000DF91CF911F910F9108950F931F93CF93C4
:1019B000DF930FE215E0C9EAD1E0CE010E94DB35EA
:1019C000F80181938F012196CD3CF1E0DF07A9F763
:1019D000CAE6D4E0FE0185919491009711F0FC01D4
:1019E00009952C96F4E0CA3FDF07A1F7DF91CF916C
:1019F0001F910F9108950F931F93CF93DF9384301E
:101A000030F5683020F5463010F5C42FD0E0CC0F0B
:101A1000DD1F2CE0629FC00DD11D112430E6839F95
:101A2000C00DD11D1124CE0189960E94DB35082FEF
:101A300010E0102F0027CE018A960E94DB35980116
:101A4000282BC901DF91CF911F910F91089580E05C
:101A500090E0F8CF462F672F20913803309139035B
:101A6000232B91F4703F39F4403F71F48091360399
:101A7000909137030895783038F4463028F4843054
:101A800018F40E94FB0C089580E090E00895A0E017
:101A9000B0E0EDE4FDE00C946C357C0100912E0586
:101AA00080912D05082BC3E0D0E010E0C8010C2E7A
:101AB00002C0959587950A94E2F780FD09C02197A9
:101AC000A8F7D12C8D2DCDB7DEB7E7E00C94883583
:101AD000DC2EB7018C2F0E942A0D0E9473050197FE
:101AE00071F3F0CFCF93DF93D82FC92F0E94470D0A
:101AF0006D2F7C2F0E942A0D0E947305DF91CF91DC
:101B00000895FC018481882371F087819085009776
:101B100029F00E9473050E947603089580819181C7
:101B20000E94720DF8CF80E008951F93CF93DF934A
:101B3000182FD92F662399F0442389F00E94470D6E
:101B4000C82F682F812F9D2F0E94B503612F7D2FF5
:101B50008C2F0E942A0DDF91CF911F9108950E9432
:101B6000EC03C82FF3CFFC01462F878190850097A7
:101B700029F46581808191810E94950D089585E207
:101B800090E00E94DB358C3289F486E290E00E947E
:101B9000DB35873259F487E290E00E94DB3591E033
:101BA0008D3409F090E0892F8170089580E0FCCF9A
:101BB00080912D01882359F18091530587FF27C01B
:101BC0000E94BA0880939B0140E250E06CE373E00E
:101BD0008AE991E00E94AE35892BC1F080E2EAE902
:101BE000F1E0ACE3B3E001900D928A95E1F7E0916A
:101BF0005C03F0915D03309749F086E080939A0191
:101C00000480F581E02D8AE991E0099508950E940C
:101C1000BA088093920148E050E06EE573E082E9F3
:101C200091E00E94AE35892B89F388E0E2E9F1E08A
:101C3000AEE5B3E001900D928A95E1F7E0915C0387
:101C4000F0915D03309711F30280F381E02D82E97A
:101C500091E0DBCF882321F00E9467040E94D80D19
:101C60000895882339F090917A04892B80937A041F
:101C70000E94D80D0895882321F00E946D040E94CF
:101C8000D80D0895882341F0809590917A04892396
:101C900080937A040E94D80D0895CF93C82F88238B
:101CA000B1F18CEF8C0F813AA0F580912D01882342
:101CB00001F18091530587FF1CC0EC2FE695E69556
:101CC000E695F0E0E656FE4F828190E04C2F47709B
:101CD00021E030E002C0220F331F4A95E2F7822351
:101CE0009323892B79F08C2F0E9466080E94D80DCF
:101CF00009C0E4E9F1E08191C817A9F321E0EA39CC
:101D0000F207C9F78C2F0E9432080E94D80DCF919C
:101D1000089580E28C0F883048F4C77081E001C0DC
:101D2000880FCA95EAF70E946704EFCF8BE58C0F06
:101D3000833038F42C2F2452330BC9010E94E6075C
:101D4000E6CFC85ACB3118F7EC2FF0E0EE0FFF1FAB
:101D5000E75AFE4F808191810E940C08D8CFCF9323
:101D6000DF93EC01805E9109089720F061E37EE04B
:101D7000209711F46AE27EE0CE010E946C038C2F62
:101D80000E944D0EDF91CF910895662329F0209196
:101D90007A04226020937A049C013052211530434A
:101DA00008F499270E94AF0E0895882339F19CEF1B
:101DB000980F913A28F40E9466080E94D80D089561
:101DC00090E2980F983050F4877091E001C0990F1D
:101DD0008A95EAF7892F0E946D04EFCF9BE5980F53
:101DE000933028F480E090E00E94E6070895885A36
:101DF0008B3120F480E090E00E940C080895CF938E
:101E0000DF93EC010E94D50ECE01805E9109089708
:101E100020F062E47EE0209711F46BE37EE0CE01D7
:101E20000E946C03DF91CF9108950F931F93CF937E
:101E3000C82F00914F0510915005893321F0009172
:101E40004D0510914E058C2F0E944D0E0115110568
:101E500039F48C2F0E94D50ECF911F910F910895C8
:101E60008FE99FE00197F1F700C0000001501109D0
:101E7000EDCFA0E0B0E0EFE3FFE00C946C35EC01B7
:101E80009881992309F49CC09130E1F599818A8168
:101E9000913021F422960E94150F05C0923029F44A
:101EA00022960E944D0E2196EBCF933021F422967C
:101EB0000E94D50EF8CF943011F02196F4CF2296DF
:101EC00020E030E06AE0AE014F5F5F4F8053990B36
:101ED0008A30910560F02115310529F38FE99FE0E3
:101EE0000197F1F700C0000021503109F4CF629F43
:101EF000F001639FF00D11249C012E0F3F1F89817B
:101F0000EA01E1CFE92FF0E0E155FE4FD490292F0F
:101F100026952695269530E0F901E156FE4F8491ED
:101F20009770F901E157FE4FE490F12C092E02C0A1
:101F3000F594E7940A94E2F741E0E422FF24F901E2
:101F4000E158FE4F049110E0092E02C01595079547
:101F50000A94E2F701701127E82FF0E002C0F5952E
:101F6000E7959A95E2F7E0FD0CC0E114F104A1F4C5
:101F70008D2D0E94150F0115110509F494CF8CE2E7
:101F80008ACF81EE0E944D0EE114F10479F48D2D7B
:101F90000E94150F81EE07C086EE0E944D0E8D2D1A
:101FA0000E94150F86EE0E94D50EE5CF86EE0E94A8
:101FB0004D0E8D2D0E94150F86EE0E94D50EEACF94
:101FC000CDB7DEB7E7E00C948835109278048091A5
:101FD0002D018823C1F08091530587FF14C0ECE9DF
:101FE000F1E08EE1DF011D928A95E9F780E090E053
:101FF0000E94E60780E090E00E940C0810927A04AC
:102000000E94D80D0895E4E9F1E086E0EBCFCF928D
:10201000DF92EF92FF92FB018FEF9FEF443051056B
:1020200008F481C0C080D180E280F3800E94E50F77
:10203000D701C601B695A795979587958170282FEA
:10204000220FD701C60181709927AA27BB27822BAF
:10205000B701A60132E076956795579547953A9571
:10206000D1F74170440F440F842BB701A601E3E080
:102070007695679557954795EA95D1F74170440F46
:10208000440F440F842BB701A601F4E076956795C1
:1020900057954795FA95D1F741704295407F842B2B
:1020A000B701A601A5E07695679557954795AA953E
:1020B000D1F741704295440F407E842BB701A601B1
:1020C000B6E07695679557954795BA95D1F74170E3
:1020D0004295440F440F407C842BB701A60197E042
:1020E00076956795579547959A95D1F747954427E3
:1020F0004795842B80935305D1FA882780F9880F60
:102100009D2D9170892B909154059C7F892B8093F4
:102110005405609153057091540584E090E00E944D
:10212000173680E090E0FF90EF90DF90CF90089519
:10213000EFE2F5E0128E138E8FEA90E091838083B8
:1021400085E0848F28E833E13383228322E330E083
:10215000378B268B28EC30E0318F208F158E178E31
:10216000168E20E530E031A320A382A30E94B80C94
:102170000E94E50F109254051092530580E0846090
:102180008093540560E074E084E090E00E9417368C
:102190000E94D50C0895AAE2B0E0E1EDF0E10C94C4
:1021A00070358AEC91E0FC0101962091F1002083CA
:1021B00021E0823D9207B9F78091CB01893009F483
:1021C00056C0C8F4823009F4B3C0833009F482C029
:1021D000813071F18091E80083FFE7C08091CA01EE
:1021E0009091CB019A3008F0E0C0E92FF0E0E95C73
:1021F000F94C0C9498358A3009F489C08B3051F72A
:102200008091CA01813231F78091CE019091CF0146
:10221000892B01F78091E800877F8093E8000E9476
:10222000630A8091CC0180932D010E94E50FD2CFEB
:102230008091CA01813A71F68091E800877F80938E
:10224000E8008091CE019091CF01892B61F060E090
:1022500080E090E070E00E940A0A8091E8008B77AD
:102260008093E800B7CF68E082ED91E0F3CF8091F2
:10227000CA01813209F0AECF8091CE019091CF0199
:102280008D7F892B09F0A6CF8091E800877F80930E
:10229000E8008091E80082FF18C09091F3008091DF
:1022A000F200029731F48091F100813011F0863014
:1022B00021F48091F1008093DA018091E8008B771E
:1022C0008093E8000E94630A85CF809117038111F3
:1022D000E0CF80CF8091CA01813A09F07BCF809115
:1022E000CE019091CF01892B09F074CF8091E80045
:1022F000877F8093E8008091E80080FFFCCF809189
:102300002D018093F1008091E8008E77D9CF8091E4
:10231000CA01813209F05ECF8091E800877F809307
:10232000E8000E94630A8091CD018093C60152CFDC
:102330008091CA01813A09F04DCF8091E800877FF2
:102340008093E8008091E80080FFFCCF8091C60177
:10235000D8CF803889F0823841F58091CE018F70D6
:10236000873018F58093E9008091EB0085FB882782
:1023700080F91092E90006C08091C7019091F202A5
:10238000911182609091E800977F9093E80080938C
:10239000F1001092F1008091E8008E7723C0811146
:1023A00016C08091CC01813011F18091E80083FF4B
:1023B0000AC08091E800877F8093E8008091EB005D
:1023C00080628093EB00AA96E3E00C948C35823017
:1023D00061F78091CC01882389F01092E900809107
:1023E000E800877F8093E8000E94630ADECF81E0E7
:1023F000933009F080E08093F202EFCF8091CE011C
:102400008F702FEF280F263080F68093E9002091FF
:10241000EB0020FFE2CF933031F48091EB0080623B
:102420008093EB00DACF9091EB0090619093EB00FA
:1024300021E030E0A90102C0440F551F8A95E2F760
:102440004093EA001092EA008091EB008860E8CFA8
:102450008111ABCF1091CC011F778091E300807880
:10246000812B8093E3008091E800877F8093E800D0
:102470000E94630A8091E80080FFFCCF8091E30016
:1024800080688093E30083E0111101C082E08093B3
:1024900017038BCF8058823008F087CF4091CC0152
:1024A0005091CD014C3D83E0580799F583E08A8334
:1024B0008AE289834FB7F894DE01139620E03EE06C
:1024C00051E2E32FF0E050935700849120FF03C0C6
:1024D00082958F703F5F8F708A30C8F0895C90E082
:1024E0008D939D932F5F243161F74FBF8091E8005A
:1024F000877F8093E8006AE270E0CE0101960E9437
:102500000A0A8091E8008B778093E8004ECF805DC7
:10251000E6CF8091CE019091CF01252F3327233034
:10252000310509F44AC078F52130310509F483C03A
:102530008BE590E0EFE2F2E02230310509F035CF93
:102540002091E800277F2093E8002091D00130916E
:10255000D1018217930708F49C0140E02115310551
:1025600009F06EC041116CC08091E80082FDC9CFB6
:1025700080911703882329F2853019F28091E800B1
:1025800083FFF2CFBECF2132310509F445C022329C
:10259000310509F00ACF8330910508F006CFFC0120
:1025A000EE0FFF1FEF5BFE4F0190F081E02D825C8C
:1025B0009E4FDC018C9190E010C0CA0199274230F7
:1025C00019F18330910568F4892BB1F4ECEDF2E058
:1025D000E4918E2F90E0ECEDF2E0009709F4E5CE67
:1025E000AFCF039709F0E1CEECE9F2E0E4918E2F52
:1025F00090E0ECE9F2E0F1CFEEECF2E0E4918E2F26
:1026000090E0EEECF2E0E9CFEAEBF2E0E4918E2F1D
:1026100090E0EAEBF2E0E1CF8330910508F0C5CE1F
:10262000FC01EE0FFF1FE95BFE4F0190F081E02DF2
:1026300089E090E085CF82E190E0EAE8F2E080CFA7
:1026400080911703882309F45CCF853009F459CFB2
:102650008091E80083FD55CF8091E80082FD84CF12
:102660008091E80080FF7ACF9091F3008091F20092
:102670002115310519F08830910550F041E0089797
:1026800009F040E08091E8008E778093E80066CF03
:1026900044914093F1003196215031090196E8CFE1
:1026A000803809F082CE8091E800877F8093E8002F
:1026B0008091C8018093F1006ECE811176CE109189
:1026C000CC01123008F071CE8091E800877F8093B2
:1026D000E8001093C8010E94630A1123D1F084E03E
:1026E0008093170342E061EC81E00E94EB0A42E232
:1026F00061EC84E00E94EB0A42E261EC82E00E941D
:10270000EB0A42E260EC83E00E94EB0A809117033F
:102710004CCE8091E30087FDE2CF81E0E1CF809154
:102720002F01877F80932F0190917A049D7F909352
:102730007A0484FF06C08F7E80932F0182E00E947E
:10274000670480912F0185FF06C08F7D80932F0144
:1027500080E20E9467040E94D80D0895CF92DF9214
:10276000FF920F931F93CF93DF93EC018B01F42E15
:1027700080912F0182FF66C0C0906804D0906904E8
:10278000CC16DD0619F0209709F05CC080912F016E
:102790008B7F80932F01C1E081FD10C08091660482
:1027A000909167049801281B390BC1E080910B01BF
:1027B00090910C012817390708F4C0E0C17080918E
:1027C0002F01C0FB81F980932F016C2FC6010E945D
:1027D0004C078091780481FF08C080912F018061AF
:1027E00080932F0182E00E946D048091780485FF20
:1027F00008C080912F01806280932F0180E20E94A7
:102800006D046C2FC6010E94C50EFF2031F080912F
:102810004A0585FF02C086FF29C080914D05909131
:102820004E050E947D0B80916804909169049C0183
:1028300030522115304308F499270E94FF0E0E9460
:102840008F1310C0CE01905281159043B8F4CE0181
:1028500099270E94FF0E8091680490916904C8171F
:10286000D90769F31093670400936604DF91CF9151
:102870001F910F91FF90DF90CF900895CE01E9CF87
:10288000CF93DF93EC014A855B856E857F850E943F
:10289000D0079B81909580917A04892380937A0454
:1028A0008C810E946D040E94D80D86E0FE01119279
:1028B0008A95E9F7DF91CF910895CF93DF93EC01EB
:1028C0008D8181FD14C082608D8380917A049B810B
:1028D000892B80937A048C810E9467040E94D80D12
:1028E000488559856E857F85CE010E94D00710925C
:1028F000E3031092E2038D8180FD03C0CE010E94AC
:102900004014DF91CF9108951F93CF93DF93182F39
:10291000A091D803B091D903109709F44AC010923E
:10292000DB031092DA031092D6031092D5031696A9
:10293000CD91DC911797CE019A9581159F4108F4AE
:10294000D07ED1E0C11101C0D0E01996ED91FC918B
:102950001A97309731F01B966D917C9180E0099524
:10296000D823DD2339F08CEF8C0F813A30F58C2F92
:102970000E9466081123A9F0E091D803F091D903D1
:10298000808584FD0EC08091D703882351F080811B
:1029900091819C01215031092F333E4710F40E9450
:1029A000B8090E94D80D1092D9031092D803109242
:1029B000D703DF91CF911F9108950E94D80D8C2FDE
:1029C0000E94D50ED7CF9C01CB01BA01F9013296F6
:1029D000459154916417750748F0F9013496659153
:1029E00074910E94BB3580E090E008958FEF9FEFD7
:1029F00008959C01DA010296FC0145915491FC0175
:102A000085919491A817B90758F0F90134968591EA
:102A100094910E94BB350E94B80C80E090E008952C
:102A20008FEF9FEF0895A0E1B0E0E9E1F5E10C94AC
:102A300066351A821982FE01339686E0DF011D9207
:102A40008A95E9F78DE4A82E81E0B82E8E010F5FFC
:102A50001F4F4801EE24E394F12C27E5C22E21E01C
:102A6000D22EF50181915F018F3F09F441C0F894A6
:102A7000E82FE295EF70F0E021A18F70A70102C06E
:102A8000440F551F8A95E2F7CA01922F982B91A304
:102A900092A18095892382A3789400C0E1E5F1E0BA
:102AA00031E0712C21912F3F09F48EC0A22FA29505
:102AB000AF70A05EB0E08C9190E02F7002C0959551
:102AC00087952A95E2F7817081117EC0832F782A3D
:102AD000330FCE16DF0631F7F501319780818F3F36
:102AE00011F00E948E0650EA5A95F1F7D8017C92B7
:102AF0000F5F1F4FB1E5AB16B1E0BB0609F0B1CFD8
:102B000048E050E0B40187EE92E00E94AE350091BB
:102B1000F00210E0035F1C4F892B09F457C088E0D6
:102B2000F401A7EEB2E001900D928A95E1F781E001
:102B30008093C3010E9493089093C2018093C101C6
:102B400080913003882309F49AC01A8619861C865E
:102B50001B86809118038A3008F05AC07E01E9E094
:102B6000EE0EF11C4EEC56E1B701C8010E94120CAA
:102B70006701882309F471C042E856E1B701C80132
:102B80000E94120C882309F468C040E757E1B7019E
:102B9000C8010E94120C882309F45FC01092180328
:102BA0008091EF0290E044E050E0B601835F9C4FDB
:102BB0000E94AE3521E02093C001892B09F03FC06F
:102BC0006096EDE00C94823580E081CF8091C30166
:102BD000882309F4B5CF8091C1019091C2010E9470
:102BE0008909059708F4ACCF44E050E067EE72E045
:102BF000C8010E94AE35892B41F084E0E7EEF2E097
:102C0000D80101900D928A95E1F71092C30198CFF7
:102C10008091BE019091BF010E948909843F91403B
:102C200008F09CCF8091C001882351F2FE013996B3
:102C300084E0DF011D928A95E9F71092C001E091CE
:102C4000EF02F0E0E35FFC4F89859A85AB85BC8598
:102C500080839183A283B383B3CF809118038F3F86
:102C600039F40E9493089093BF018093BE01DACF9C
:102C70008F5F809318038A3008F492CFF2CFF80167
:102C800080819181A281B38180931F03909320035F
:102C9000A0932103B09322038FE193E00E94D20A14
:102CA00080931E03C0902303D0902403E09025035B
:102CB000F09026038091BA019091BB01A091BC01D4
:102CC000B091BD01C816D906EA06FB06B1F0C09264
:102CD000BA01D092BB01E092BC01F092BD010E940A
:102CE0003909C61AD70AE80AF90AC0923203D09203
:102CF0003303E0923403F0923503809127038093ED
:102D000019035ECFA8E0B0E0E8E8F6E10C94703576
:102D100080911A0390911B03A0911C03B0911D0395
:102D2000BC01CD010E94980911E06436710581054E
:102D3000910578F10E945609DC01CB010296A11D94
:102D4000B11D89839A83AB83BC8380911E019091CE
:102D50001F01825E9C4F20911D01422F50E02530C3
:102D600010F044E050E0BE016F5F7F4F0E94BB3522
:102D700082E090E00E94EC34182F882351F00E94EA
:102D8000390960931A0370931B0380931C0390937B
:102D90001D03812F2896E3E00C948C35EF92FF926F
:102DA0001F93CF93DF93CDB7DEB729970FB6F89473
:102DB000DEBF0FBECDBF7B0180E090E00E94EC340F
:102DC000182F81111BC010E08091280390912903D6
:102DD000A0912A03B0912B03F70180839183A283F2
:102DE000B383812F29960FB6F894DEBF0FBECDBFF7
:102DF000DF91CF911F91FF90EF9008958091100186
:102E0000482F50E0882311F041E050E0609111011B
:102E100070911201625E7C4FCE0105960E94BB3517
:102E200080912C0390912D03A0912E03B0912F033C
:102E3000BC01CD010E9498096E837F8388879987A2
:102E4000643671058105910538F48FE193E00E94A5
:102E5000D20A9D818917B9F181E090E00E94EC349B
:102E6000882309F4B0CF80911801482F50E08530B5
:102E700010F044E050E06091190170911A01625E17
:102E80007C4FCE0101960E94BB358FE193E00E94FA
:102E9000D20A9D81891397CF0E94390960932C0330
:102EA00070932D0380932E0390932F0389819A8131
:102EB000AB81BC818093280390932903A0932A03BC
:102EC000B0932B0381CF80911F0390912003A09199
:102ED0002103B091220389839A83AB83BC83E6CF1D
:102EE000A1E0B0E0E6E7F7E10C94713581E0898379
:102EF000809118038A30E8F010921903809126011E
:102F000090912701825E9C4F20912501422F50E035
:102F1000222311F041E050E0BE016F5F7F4F0E941D
:102F2000BB3583E090E00E94EC34898380931903E1
:102F300004C080911903882309F389812196E2E076
:102F40000C948D35AEE1B0E0E8EAF7E10C9466351B
:102F5000A0901503B090160381E090E090931603C3
:102F600080931503812C912CE12C6401F12C15C068
:102F7000F80125913491472D6F2D8E2D0E94630C01
:102F80000E5F1F4F739486E07812F2CFA6E0CA0E50
:102F9000D11CF394B8E0FB1639F08601000F111F25
:102FA00000521D4F712CE4CFE39480E3880E911CF6
:102FB000A4E0EA12DACF0E9498101A8219821C82C9
:102FC0001B821E821D8218861F8288EC90E09A87E1
:102FD00089870DEC11E04AE050E0B801CE0101967E
:102FE0000E941D36065F1F4F0D31B2E01B0799F797
:102FF000FE013B968AE0DF011D928A95E9F77F0189
:103000004AE050E0B801C7010E941D36065F1F4F1D
:103010000D36B2E01B07A1F7FE01759689E0DF01CE
:103020001D928A95E9F78FEF9FEF9A8F898F87E03E
:103030008E8F7F014AE050E0B801C7010E941D3623
:10304000065F1F4F0D3BB2E01B07A1F7B0921603BE
:10305000A09215036E96EDE00C94823580E00E94FC
:103060009A0C60E088E290E00E94F9350E94A21775
:103070000E948A0C81E00E949A0C0895AAE0B0E0B8
:10308000E4E4F8E10C946B35EFE8F2E080E5DF0171
:103090001D928A95E9F7EEE7F4E088E3DF011D92DF
:1030A0008A95E9F78FE8C82E82E0D82E7F010DE1DE
:1030B00012E0F701D182C0824AE050E0B801CE01AF
:1030C00001960E94CB3588E0FE013196D601019031
:1030D0000D928A95E1F789859A85D70113969C937D
:1030E0008E931297BAE0CB0ED11CE7E0EE0EF11CE6
:1030F000065F1F4F0D36F2E01F07D9F62A96E8E06B
:103100000C948735AAE0B0E0E8E8F8E10C94673564
:1031100007E112E085E0C82E82E0D82E9DE6E92E78
:1031200092E0F92E27E0922E34E0A32E32E0B32E67
:1031300088248394D6010D931D936D014AE050E0DD
:10314000B701CE0101960E94CB35F8013896DF0118
:10315000892D1D928A95E9F789819A81D801119666
:103160009C938E938F8112968C9312978D811396D8
:103170008C931397888514968C931497898515964C
:103180008C9315978B819C8117969C938E931697A1
:103190008A8587FD04C01E96BC92AE921D9780FF63
:1031A00002C0F801808681FF07C0D80118969C9163
:1031B0001897926018969C9382FF04C0F80190853E
:1031C0009460908783FF07C0D80118969C91189748
:1031D000986018969C9384FF04C0F80190859061D4
:1031E000908785FF07C0D80118968C911897806248
:1031F00018968C93015F1F4FBAE0EB0EF11CEDEBBC
:10320000EE16E2E0FE0609F095CF2A96ECE00C946B
:103210008335282FCB01283070F44AE0249F900199
:103220001124B90163537E4F4AE050E00E94CB3530
:1032300080E090E008958FEF9FEF0895AAE0B0E05E
:10324000E4E2F9E10C9471359C0197558F3F9105AB
:1032500009F070F4BE016F5F7F4F822F0E94091941
:10326000892B31F489859A852A96E2E00C948D3574
:103270008091470590914805F7CFA0E0B0E0E3E4E6
:10328000F9E10C946C35D62E172FC42FD22F88233A
:10329000A9F0409373040E9493089093C501809312
:1032A000C401C77081E001C0880FCA95EAF70E9487
:1032B0002A0ECDB7DEB7E7E00C9488358091730411
:1032C000481337C08091C4019091C5010E948909BB
:1032D0007C018D2D912F0E941E19E816F90648F5E4
:1032E000CD130CC0802F0E94150FD77081E001C054
:1032F000880FDA95EAF70E943B0EDBCFC77011E02A
:10330000812F01C0880FCA95EAF70E943B0E80E228
:103310008D0F883050F48D2F877001C0110F8A9562
:10332000EAF7812F0E942A0EDDCF802F0E94150F11
:10333000C0CFC77081E001C0880FCA95EAF7DBCF24
:10334000A5E0B0E0E6EAF9E10C9461357C01DC012E
:1033500014968C91882309F471C261E0C7010E9420
:10336000B30D8C01F7018581882319F18091E20367
:103370009091E3030097E9F008171907D1F0992716
:1033800054E0880F991F5A95E1F7FC01E551FC4F75
:103390002081246020838A519C4FDC010D931C9373
:1033A0000E945D1410927A0461E0C7010E94B30D7F
:1033B0008C01F7015580552009F4BAC0C801975710
:1033C0008038910508F00FC2D02EFFE0F01708F406
:1033D00024C28FEF93E00E94DB3581111EC20DEBFA
:1033E00012E0D1103CC08091310190913201A09146
:1033F0003301B091340189839A83AB83BC83680124
:103400004FEFC41AD40AC8010E94DB3589831A829F
:10341000882309F402C2813009F084C0580152E0C7
:10342000A50EB11CC6010E94DB35D82E8A838823E5
:1034300009F4F3C1C5010E94DB35C82E8FEF8D0D55
:103440008330D8F4CB82CC2021F0CE0101960E94AB
:10345000390F580183E0A80EB11C8501D0CF0115AA
:1034600024E0120709F4D9C1C8010E94DB350F5FBF
:103470001F4F8111F4CFDA94B4CF8BEF8D0D8330D1
:1034800040F5580193E0A90EB11CCB82CC2029F362
:10349000C5010E94DB358C83882381F08B819C8160
:1034A0008130AFEF9A0710F0982F8827B6E0DB162F
:1034B00051F0E7E0DE1651F00E94FC295801F4E0DB
:1034C000AF0EB11CCACF0E94B829F8CF0E94DA29EA
:1034D000F5CF24E0D212C1CF580144E0A40EB11CB4
:1034E000C80103960E94DB35CC2009F496C18823DD
:1034F00009F493C18150990B4FEF489F9001499F68
:10350000300D1124AC2DA150BB0B2A0F3B1F2150B5
:10351000310908F4A2CFEFE9FFE03197F1F700C0DD
:103520000000F5CFCE0101960E94390F560195CFCC
:10353000011527E5120708F485C1011548E51407B0
:1035400008F022C1680157E5D51A6BEC73E08C2DA9
:103550000E940919892B21F5C60134E0880F991FB3
:103560003A95E1F7FC01EA51FC4F22812130D9F470
:103570002091CB033091CC03232B91F02091CD03EC
:103580003091CE03232B61F02091CF033091D003F3
:103590004091D1035091D203242B352B232B59F08A
:1035A000F701558015C02230D9F72091CF03309113
:1035B000D003232BA9F3FC01E551FC4F20812E7F82
:1035C00020838A519C4F0E945D14D70115965C9010
:1035D00080912E01882309F489C1480150EE851A93
:1035E00091084090790480917804482A809177046A
:1035F000482A88E08816910408F0C1C19801277014
:10360000332781E090E001C0880F2A95EAF7552022
:1036100009F4B2C1482AD7018D919C910E94EC0314
:1036200021E030E0190102C0220C331C8A95E2F738
:103630006090D8037090D9031D82BD81EB2FF0E01C
:10364000EE0FFF1FEB5FFD4FC080D180C114D1048E
:1036500009F4E9C1411004C0F60182818111B3C1AE
:10366000D60113968C91139790E082219321892B98
:1036700009F4A9C118968C91982F9770911195C152
:10368000B8E08B16910408F0A2C1511096C1F60162
:10369000A080B1800A151B0509F495C1C614D70492
:1036A00009F491C1D6011D96ED91FC91309721F05E
:1036B0008081882309F487C1642DC6010E94AF0769
:1036C000882309F480C10A151B0511F4511005C0A7
:1036D000A114B10409F083C1512C80E00E9484142C
:1036E000D092D903C092D80381E08093D703F6012A
:1036F00085818093D60351100DC0AB2859F080818D
:1037000091819C0124503109213A310508F06FC1A3
:103710000E946608F601A680B780C5019A958115BA
:103720009F4110F420EEB22277247394C5010197D3
:103730008F339E4708F0712CD6011996ED91FC91BC
:103740001A97309731F01B966D917C9181E0099525
:10375000782281E05826772009F462C1F60186813B
:1037600097810E9442038093D503C501F8E08F162C
:10377000910408F03FC10E94B8090E94D80D511071
:1037800065C00E94D80D49C080912E01882309F49C
:10379000ACC18091E0039091E1030817190781F40F
:1037A0001092E1031092E0031092DC031092DD030B
:1037B0001092DE031092DF031092DB031092DA0303
:1037C000E091D803F091D903309709F488C0808143
:1037D00091810817190709F082C01092D70380E081
:1037E0000E9484147CC00E35FCE71F0799F00F354A
:1037F0002CE7120749F050902E010D354CE71407C5
:1038000009F06BC0552031F010922E0180E00E942B
:10381000841403C081E080932E0180917B04877023
:10382000882361F0D70115968C91882339F0809117
:10383000540582FF03C082E00E944B042596E2E11A
:103840000C947D3580912E018111C7CE80914A055F
:1038500080FFA1C20E9493086C01D70115968C913C
:10386000811155C1013E110509F436C1053E11050E
:1038700009F0D4C180912F018F7D80932F01D70152
:1038800015968C91811168C1D70115968C9188236A
:1038900009F4C9C10A35BCE71B0709F479C408F06B
:1038A00047C40130FCE71F0709F455C403302CE777
:1038B000120709F45DC401154CE7140709F0B3C100
:1038C0000E94E50F9FEFA4E3BCE09150A040B04000
:1038D000E1F700C000000E948B0B51107ECEC801A2
:1038E00097558F3F910511F008F0FFC0F801FF27B1
:1038F00094E0EE0FFF1F9A95E1F7AF014A515C4F3C
:103900006A01D70115968C91E551FC4F908180FB9F
:1039100090F99083882309F4ADC00E949308909396
:10392000E5038093E403F60182818F5F82838091B7
:103930007A0490917804892B83838091770484831F
:103940004681578166857785C6010E94D007D601DA
:1039500015968C9181FD8BC0902F812F9093E2035F
:103960008093E30380914A0580FFE7C20E94930899
:103970006C01F7018581AAC0809548224CCE552064
:1039800009F407CF1093E1030093E0030E94390983
:103990006093DC037093DD038093DE039093DF0379
:1039A0001092DB031092DA0336CEE8E08E16910413
:1039B00088F4552031F081FF06C0D601AD90BC904F
:1039C0006DCE82FD64CE9D819F5F9D8336CE51106A
:1039D000F4CFF9CF5520B9F380FFF5CFEECF80912A
:1039E000E0039091E1038A159B0569F775CE0E946B
:1039F000D50E90CE0497813A910530F48A2D0E941D
:103A0000320851106CCFBDCE0E94D80D8FE39CE9D7
:103A10000197F1F700C000008A2D0E944D0EF1CFF2
:103A20000E94D80DEECF6114710409F458CFA8E0BC
:103A30008A16910450F4642DC3010E94AF078111CE
:103A400005CF81E00E94841401CFF3018081918130
:103A50000817190739F4552009F4BFCE808585FD74
:103A60003ECFBDCE552009F43ACF8085F8CF90E007
:103A700080E074CFFA014485558566857785C60157
:103A80000E94D007D60115968C9181FF2BC0C601EC
:103A90000E9440142091E2033091E30380914A0593
:103AA0000217130759F41092E3031092E20380FD0A
:103AB0005DCFF701858181114FC020C180FF3DC2DC
:103AC0000E9493086C01D70115968C9181111FC03B
:103AD000013E110509F0A2C080912F018F7E8093D5
:103AE0002F0167C080914A05E2CF80914A0580FD91
:103AF000B1CED70115968C91F801E851FC47E7301B
:103B0000F10508F048C1EF5BF94C0C9498358091B1
:103B10002F0182FF06C040E0B60180E090E00E94E5
:103B2000AE130431FCE71F07C9F105312CE712077A
:103B300009F1D70115968C910331BCE71B07E1F51C
:103B400090912F01916090932F01882309F49CCECE
:103B5000109269041092680410927304C80190577F
:103B6000839708F4EEC10631BCE71B0709F04FC08C
:103B700091E020C190912F01892F8E7F90FF81606D
:103B800080932F010E948F1380912F0180FF77CEA9
:103B9000F7018581882309F4FEC02CC080912F0194
:103BA0008E7F80932F010E948F1380912F0180FDC3
:103BB000EFCFF701858166CE980130522115304351
:103BC000F0F0D70115968C9190912F0190FF91CF35
:103BD0000832110508F085C00E31110508F0D0C07B
:103BE0009801245031092A31310508F4A0C08823F6
:103BF00009F484C01092690410926804CCC0109239
:103C0000690410926804882371F0109273040737D6
:103C1000ECE71E0709F07CC281E080C2C801905227
:103C20008115904370F6F70187819085009709F41C
:103C3000B3C20E947305D82E192FF701B580C68034
:103C4000C2948FE0C82280917B048770882309F199
:103C5000AB2CBB20F9F0892F807F803469F080E2A3
:103C60008D0D8830B0F0892F807E803229F4F1E00C
:103C7000FD1578F4CC2069F08091540582FF09C0CD
:103C800082E00E944B0480917B048770AA24A39455
:103C90008111A12C812F82958F70883009F4DFC3A8
:103CA00008F0A2C2843008F08EC2012F0F7082305B
:103CB00008F4ACC2812F807F803211F00295007F22
:103CC000DD2009F4D9C241E0D41609F47BC3BB203E
:103CD00009F48FC3CC2009F487C38D2D0E944D0EAB
:103CE00011C309331105C0F40D32110508F04DC0A0
:103CF0000B32110509F449C081112ACF07372CE78F
:103D0000120709F413C282E008374CE7140709F0E0
:103D1000BBCD0E94A50304C204361105B1F188236E
:103D200009F4E7CE1092690410926804E2CE9091F3
:103D30004A0594FD5CCF882309F4CDC080917704B7
:103D400090917804892B8D7F882309F45BC01092B1
:103D500069041092680480914A0581FD53C060E0B7
:103D6000C8010E944C0760E0C8010E94C50E809106
:103D700077048D7F0E94250982E00E944B044DCD7F
:103D800090914A0593FD33CFD6CF90914A0592FF8B
:103D9000D2CF8111C7CFF7018581811110927304B1
:103DA000D70115969C919111D9CE0631FCE71F07DA
:103DB00009F0A4CF809178043091490530FF04C008
:103DC000282F247421118CC1282F2A7A31FF04C096
:103DD000482F4171411120E0432F487032FF82C1CA
:103DE000382F3878332309F47DC141118DC19111E9
:103DF00084C180917404882309F488C185E30E94FA
:103E00006608BFCC89E0F701AAE6B4E001900D9204
:103E10008A95E1F710926D0410926C048091680409
:103E20009091690408171907C9F520914A0525FFE3
:103E300035C030912F0131FF02C026FF2FC02091E5
:103E40006604309167045601A21AB30A0E941E1933
:103E5000A816B90618F58091780481FF08C08091F2
:103E60002F01806180932F0182E00E946D04809178
:103E7000780485FF08C080912F01806280932F0114
:103E800080E20E946D0460912F01669561708091BF
:103E90006804909169040E94C50EBFCC809177049C
:103EA000B0907804B82AB1FABB24B0F88D7F0E9494
:103EB00025091093690400936804D0926704C092A6
:103EC0006604BB0C6894B2F890912F01997FB92ACF
:103ED000B0922F0151CF40E0B601C8010E94AE134D
:103EE0009CCC06E221EE41EE6AE17CE70E943D199E
:103EF00094CC07E225EE45EE6BE17CE7F7CF06E2D6
:103F000021EE40EE68E17CE7F1CF07E225EE44EEDA
:103F100069E17CE7EBCF06E221EE42EE6CE17CE763
:103F2000E5CF07E225EE46EE6DE17CE7DFCF08E264
:103F300021E045EE6EE17CE7D9CFD70115968C9153
:103F4000BACD84E090E00E94E335909354058093CD
:103F50005305F801E150F047E232F10520F4E85B47
:103F6000F94C0C94983580915305816080935305EA
:103F7000609153057091540584E090E00E941736DB
:103F80000E94E50F4ACC80915405886080935405C7
:103F9000EFCF809153058260E9CF80915305846013
:103FA000E5CF809153058860E1CF80915405816011
:103FB000EDCF809154058260E9CF809153058061F7
:103FC000D5CF809153058062D1CF80915305806415
:103FD000CDCF0E94E50F809153058068C7CF8091B7
:103FE00053058C60C3CF809154058360CFCF8091FF
:103FF00053058E7FBBCF80915405877FC7CF8091BB
:1040000053058D7FB3CF809153058B7FAFCF8091C8
:104010005305877FABCF809154058E7FB7CF8091BA
:1040200054058D7FB3CF809153058F7E9FCF8091B4
:1040300053058F7D9BCF809153058F7B97CF0E9437
:10404000E50F809153058F7791CF80915305837F42
:104050008DCF809154058C7F99CF8091530582FB41
:10406000992790F921E0922790FB82F990FB83F940
:104070007DCF80915405982F909591708E7F892BDC
:1040800090FB81F983CF90915305892F8F7B96FF09
:1040900080646CCF0E94E50F90915305892F97FBA8
:1040A00087F9805863CF61E08EE090E00E94F93597
:1040B0005FCF60E0F9CF90915305892F8F7E94FFF9
:1040C000806154CF90915305892F8E7F90FF81603E
:1040D0004DCF90915405892F877F93FF886056CFED
:1040E00020E074CE442319F08272811180CE99238E
:1040F00009F47FCE85E3211102C090E089E290931C
:1041000074040E9432083DCB20E0EECF89E277CEE6
:1041100082E008375CE7150709F0B6CB0E949903E7
:1041200043E062E081E00E94200477CB81E0F1CDA2
:104130000B355CE7150771F10C358CE7180709F0B2
:1041400072CD8091540582FB882780F991E0892700
:104150000E944C0C68CD0E94E50FEFEFF4E32CE0D9
:10416000E150F0402040E1F700C000000E94FB0950
:104170006FEF7FEF80E090E00E9417360E94E50F1E
:104180004FEF54E38CE0415050408040E1F7ECCFDA
:1041900081E0DECF80E0DCCF8581C080D1808823C4
:1041A00069F0C6010E94470D182F682FC6010E94B2
:1041B000B503B601812F0E942A0D3BCDC6010E9496
:1041C000EC03182FF6CF843009F42CC18D2D912FDC
:1041D0000E947603882309F495C0BB2009F4A7C286
:1041E000CC2009F46DC08EC0893009F4A9C18A5F62
:1041F0008F70823058F70B2D22EFD212B3C1812F6E
:104200008F71B110ACC10E94990357C1103110F0E9
:104210000295007FBB20B9F0002359F080E28D0D9C
:10422000883010F0D11009C0802F0E9467040E94CE
:10423000D80D8D2D0E944D0EC9CF80917A04802B10
:1042400080937A04F4CF8D2D0E94D50E002309F4BB
:10425000BDCF80E28D0D883010F0D11004C0802FCA
:104260000E946D0406C0009580917A04802380939B
:104270007A040E94D80DAACF8091540582FD12C005
:10428000BB2049F0002329F0802F0E9467040E9480
:10429000D80D80E0CFCF80E00E94D50E002309F436
:1042A00095CFDDCFBB2009F452C0C11022C0802FB2
:1042B0000E942A0E80E0912F0E947603882311F13C
:1042C000AA2009F42FC280917B0480FD2BC2F70144
:1042D00015828695869586950E949903C7010E944E
:1042E000A01980917B048695869586950E94A503EA
:1042F00019C251E0C51215C0D0907704802F8D21CE
:10430000081305C01092560510925505D9CF0E948A
:1043100093089093760480937504D02AD092770402
:10432000F1CF80914B05823068F3C812EBCF802F1C
:104330000E942A0E802F0E940F0980917904902FED
:1043400098230917F9F2802B80937904DBCFC110F1
:1043500019C0802F0E943B0E802F0E940F09809170
:104360007904902F9823911108C080E0912F0E942A
:104370007603882339F20A2D85C10095082300931E
:104380007904F3CF80914B05823008F4BBCF81E0F4
:10439000C812B8CF809178048023882309F4B2CF63
:1043A000802F0E943B0E802F0E940F09809179047C
:1043B000902F9823992309F4A5CF00950823009303
:1043C0007904A0CF80915105BB2039F08C1508F4F9
:1043D00099CF802F0E942A0EF9CEC81608F0F6CE8B
:1043E000802F0E943B0EF2CE802F0E942A0E8D2D30
:1043F00062CFCC2091F099E3D9120AC080914F0589
:10440000909150050E947D0B8D2D0E94D50E7ACF84
:1044100080914D0590914E05F5CF802F0E943B0E67
:104420008D2DA4CF812F869586958370882369F082
:10443000813009F0CBCE8D2D912F9370B11002C039
:1044400080E090E00E940C08C1CE8D2D912F9370DA
:10445000B11002C080E090E00E94E607B7CE812F45
:104460008370811135C0B11028C04D2D42954695FD
:104470004770440F440F8D2D8F70042E01C0880F9C
:104480000A94EAF72D2D2071222339F02FE030E035
:1044900001C0220F4A95EAF72095312F36953695BF
:1044A0003370323081F0333061F040912D0531307E
:1044B00039F0822B84230E9493030E94D50786CE75
:1044C000842B822BF8CF822B90912D058927F3CF57
:1044D000BB2059F110FFF1CF4D2D42954695477005
:1044E000440F440F8D2D8F70042E01C0880F0A9445
:1044F000EAF72D2D2071222339F02FE030E001C0A2
:10450000220F4A95EAF72095312F3695369533706C
:10451000323089F0333069F040912E05313041F06E
:10452000822B84230E949603C8CF823030F2D4CFEE
:10453000842B822BF7CF822B90912E058927F2CFE7
:10454000012F0F70BB2039F0802F0E9499038D2D11
:104550000E942A0EB2CF8D2D0E943B0E802F0E940A
:10456000A503ABCFA2EFAD1580F0B0EFDB16D1F015
:10457000E1EFDE16D9F1BB2009F4BEC0CC2009F46E
:10458000B8C08D2D0E944D0E98CFF3EFDF16F1F0DD
:1045900024EFD21639F1B110F1CFC110B7C0812F7D
:1045A0008F71DDCF80915105BB2061F0C81608F0F6
:1045B00084CF212F2F7181E090E001C0880F2A95D0
:1045C000EAF7BACF8C1508F478CFF3CF80E0BB20A0
:1045D00009F4A8CF81E0912F9F7101C0880F9A95AF
:1045E000EAF7A0CF8091540582FD06C0812F8F711C
:1045F000BB2009F4B4CF07CE80914B05823008F47C
:1046000061C0BB2041F190917B0497709430B9F464
:1046100010927B0410927D0410927C04812F8F7184
:104620000E94A5030E94D50784EF912F0E94760374
:10463000811176C0109256051092550573C0C816A8
:1046400088F7012F0F71802F0E94990363E0802F5C
:104650000E94F808E7CFC81688F110927B041092E8
:104660007D0410927C0464E0812F8F710E94F80811
:104670000E94D50784EF912F0E9476038823D1F200
:10468000C110D8CF40E0D70115966C9115978D9148
:104690009C910E94950D80914C0583FF09C08091EB
:1046A000550590915605029719F48D2D0E94150F0E
:1046B0001092560510925505A02E02CE81E00E9460
:1046C0004B04D6CFBB2051F0012F0F71802F0E94D9
:1046D000990363E0802F0E94F808EFCE81E00E94EA
:1046E0004B0441E04C1508F0E8CE82E00E944B04F8
:1046F000E4CE812F8F7187CDCC2009F450CF59E3C0
:1047000080914F0590915005D51621F080914D056F
:1047100090914E050E947D0B8D2D0E94D50ECDCE21
:10472000C11088CF60E0C7010E94B30D87C8C110D7
:10473000E9CD21CEA0E0B0E0E0EAF3E20C946C35E4
:104740008091B603803108F049C08091B503882379
:1047500009F444C0C091670389E0D82E80916603B4
:104760008C17E1F1EC2EF12CDC9EE0011124FE010E
:10477000E859FC4F84818823B1F191818091B10384
:10478000981331C090818091B00398132CC085811B
:10479000811129C0028113818091B2039091B303EA
:1047A000081B190B60E080EB93E00E94B30D0E94A0
:1047B0001E1908171907B8F48091B6038F7080612D
:1047C0008093B603C259DC4F88818F7080618883E3
:1047D00080EB93E00E94A0190E944104CDB7DEB7A0
:1047E000E7E00C948835E7012196C770B7CFAFE0BA
:1047F000B0E0EDEFF3E20C9464358C0186E0F80153
:10480000DE011A9601900D928A95E1F7D801CC90BD
:1048100011967C90119715966C9015971296ED90C5
:10482000FC90139714965C9080EBA82E83E0B82E32
:104830008091B403811118C0552099F0662009F4C5
:10484000BFC1C8010E94810D882309F4B9C189E064
:10485000F801A0EBB3E001900D928A95E1F70E9478
:104860009A23FF24F3944BC060E080EB93E00E9416
:10487000B30DD090B5038091B2039091B303DD20C6
:1048800009F449C14701881A990A60E080EB93E076
:104890000E94B30D0E941E198816990608F0F6C0F2
:1048A0005520F9F2B090B6039091B103F8018181DF
:1048B000FFE0FB1508F4A1C0F62C981325C09091D9
:1048C000B003D8018C9198131FC02091B703309189
:1048D000B80317968D919C9128173907A9F4611098
:1048E00077C08B2D8F7080618093B60380EB93E04F
:1048F0000E94A0198091B603F8018683F12C8F2DB8
:104900002F96EFE00C948035611062C0E091670350
:1049100080916603AE2F99E0A81302C099E02AC0E7
:104920002A2F30E09A9FD0011124A859BC4F11962C
:104930004C911197741207C04C91C41204C0159683
:104940004C91411147C1D9011196A770E5CF2E2F87
:1049500030E09E9FF0011124E859FC4F4181741210
:1049600006C04081C41203C045814111C7CFF9017F
:104970003196E7708E13EBCF8A859B850E94720D6E
:10498000292F22952F70903448F02A5F2F70223003
:10499000C8F0C8010E94A019FD2CB1CF9F70223031
:1049A00038F0992351F0F8019681903130F4A7CF77
:1049B000992319F0882309F4A2CF805E883008F487
:1049C0009ECFE7CF803F08F49ACF815F8230F7CF48
:1049D0008091B60381608093B60380914C0581FD80
:1049E0008DCF80EB93E00E94A01989E0E0EBF3E02B
:1049F000DF011D928A95E9F781CF981321C090912C
:104A0000B003D8018C9198131BC02091B70330914B
:104A1000B80317968D919C9118972817390781F440
:104A200061100EC01696BC92C8010E94A01989E0C0
:104A3000F801A0EBB3E001900D928A95E1F711CF58
:104A4000C8010E94810D882309F4BAC0662009F4C8
:104A5000B7C08091B603803208F4F9CE8091B003DC
:104A60009091B1039A838983FC82EB828091B40395
:104A70008D831E82BF828091B7039091B80399877E
:104A80008887CE0101960E94A019E1CED090B6038E
:104A9000BFE0BD1508F0A5CF552009F4E2CE9091F6
:104AA000B103F801818198131AC09091B0038081FD
:104AB000981315C02091B7033091B8038781908572
:104AC0002817390761F461100AC0D682C8010E9414
:104AD000A01989E0D5011D928A95E9F7C2CEC801D7
:104AE0000E94810D882309F46BC0662009F468C018
:104AF0008091B603803208F4AACE8091B0039091E1
:104B0000B1039A838983FC82EB828091B4038D8305
:104B10001E82DF82B0CF6701C81AD90A60E080EB3D
:104B200093E00E94B30D0E941E19C816D90608F022
:104B30004BC0552009F495CE662009F441C09091F0
:104B4000B103F8018181981331C09091B003808145
:104B500098132CC02091B7033091B80387819085BA
:104B60002817390719F58091B2039091B303E81A19
:104B7000F90AF8ECEF16F10408F059CF8091B6036A
:104B800080FD55CF803108F452CFD80116968C9312
:104B90001697982F907F903F09F446CF982F907FDB
:104BA000905F8F70892B16968C933ECFC8010E9420
:104BB000810D81114CCE8091B60381608093B60344
:104BC000C8010E94A0194DCE89E0F50111928A9585
:104BD000E9F794CE90914C0590FFA0CE02CFA2E1D0
:104BE000B0E0E5EFF5E20C946F350A871B872C8760
:104BF0003D874E875F87688B798B8A8BCE010A96BB
:104C00000E94F72381112BC089E0FE013A96DE0154
:104C1000119601900D928A95E1F7209166034091DB
:104C200067038E858823D9F030E0C901019687702B
:104C3000992750E084179507E9F099E0929FD001F9
:104C4000939FB00D1124A859BC4FFE0131960190DD
:104C50000D929A95E1F7809366030E94410419E052
:104C60008091670390916603891312C06296E4E015
:104C70000C948B350E94E50F109266031092670327
:104C800089E0E0EBF3E0DF011D928A95E9F7E7CFD9
:104C9000189FC001112488599C4F0E94F723882334
:104CA00029F38091670390E001968770992780939C
:104CB0006703D6CFEF92FF920F931F93CF93DF93AB
:104CC00080912A05E091E301CDE0811131C0CDB79B
:104CD000DEB7E6E00C948935D1E0DE0FD093E30136
:104CE000EE2EF12CCE9FF0011124EE53FB4F848168
:104CF0008823E9F087819085892B21F4818592852D
:104D0000019659F4008111812281338144815581BA
:104D10006681778180850E94EF25CE9DF001CF9D31
:104D2000F00D1124EE53FB4F148210927A04ED2FF4
:104D300080912A05E81780F210922A051092E3016B
:104D4000C6CFA4E0B0E0E7EAF6E20C946235209129
:104D5000C104298317E0912E01E010E08DE0382E88
:104D600094E0492E552453948091C004998189136D
:104D700008C00E945A260E9472072496E1E10C9412
:104D80007E355981452F50E05C834B83FA01EE0F4D
:104D9000FF1FEA54FB4F80819181989ED001999E1C
:104DA000B00D1124FD01E258FB4FFA83E983248101
:104DB00021115DC070902A05E2ECF4E060E070E043
:104DC000812C671508F051C0A384B484A981BA81ED
:104DD000CD90DC904FEF5FEF612C262D30E0790114
:104DE000EE0CFF1CEC0CFD1CD701ED90FC90E114C7
:104DF000F10439F0AE14BF0409F09A016394A901DB
:104E0000ECCF4F3F5407E1F1D80102C0AA0FBB1FFE
:104E10004A95E2F78A2AA801062C02C0440F551FC2
:104E20000A94E2F79A0121503109482D50E02417E5
:104E3000350729F5369EF001379EF00D1124EE530B
:104E4000FB4F989ED001999EB00D1124A258BB4FE4
:104E500012962D913C9113973087278344821082BC
:104E600011829287818715965C920E9483078B81BD
:104E70009C8101969A8389838370898375CF14827C
:104E80006F5F7F4F3D969DCF10922C0510922B05A2
:104E9000109230018091C0048093C1040E94720777
:104EA0000E945A260895ACE1B0E0E9E5F7E20C94DF
:104EB00061354B8B5C8B6D8B7E8B8F8B988F8823B2
:104EC00049F08091550590915605019690935605AD
:104ED00080935505588C511010927A04188A198ABB
:104EE0001A8A86E0FE017396DE011A9601900D92F1
:104EF0008A95E1F78091540582FF21C080913105A8
:104F000090913205892BD9F00E94930820917C045E
:104F100030917D04821B930B209131053091320535
:104F20008217930738F080917B0482FD03C082E0F2
:104F30000E944B040E949F0881110E9475048E8577
:104F4000882379F061E0CE010A960E94B30D5C01DE
:104F500080352CE7920789F4552011F181E0809388
:104F600030010A851B852C853D854E855F856889C6
:104F700079898A890E94EF25C8C081353CE793076B
:104F800029F4552069F00E944427EBCF82359C47D5
:104F900039F4552029F0809130018111F4CFDECF12
:104FA0008EE7E82E84E0F82E412C812C912C66248B
:104FB0006394712CD7014D915C91CC24CA94DD246B
:104FC000DA9420E0822F90E0FC01EE0FFF1FE40F47
:104FD000F51F608171816115710539F0A616B7065C
:104FE00009F0C6012F5F6C01EDCFBFEFCB16DB06DA
:104FF00009F473C1F701548135814681511104C10F
:1050000080913001882309F411C1552009F40EC1A3
:105010000091450510914605311114C081E090E0E2
:105020000C2C01C0880F0A94EAF7482B4683809124
:10503000BE049091BF048017910720F41093BF0421
:105040000093BE04A30102C0440F551F2A95E2F746
:105050009A0121503109D70116968C9190E02817BA
:10506000390781F480912B0590912C05009709F464
:1050700050C00E9489090817190708F04AC081E04A
:10508000F7018483852D482ABFEF8B1A9B0AE7E03E
:10509000EE0EF11CF8E08F16910409F08BCF55202D
:1050A00009F42FC1442009F41AC10E949308909377
:1050B0002C0580932B0580912A05883030F591E0EE
:1050C000980F90932A0599E0FE013A96DE01119619
:1050D00001900D929A95E1F72DE0829FC001112475
:1050E0008E539B4F29E0FE013196DC0101900D9219
:1050F0002A95E1F72FEF3FEFDC011A963C932E93B0
:1051000019971C96BC92AE921B976C96E2E10C9498
:105110007D352091C1048091C004922FE0E0F0E041
:105120006701281314C09093C104EE15FF0509F41C
:10513000A9CF90E0FC01EE0FFF1FEA54FB4F9182D4
:1051400080820196837099278093C0049BCF022FA1
:1051500010E0F801EE0FFF1FEA54FB4F60817181F0
:10516000F7E0F69FD001F79FB00D1124A258BB4F76
:105170004D915C9111975C8F4B8F50E030E040E097
:10518000E42FF0E0EE0FFF1F6B8D7C8DE60FF71F15
:105190002080318021143104E1F0F7010190F08189
:1051A000E02DFA8FE98F30E005C02616370609F4A6
:1051B000552D3F5FE32FF0E0EE0FFF1F698D7A8DD5
:1051C000E60FF71F608171816115710571F74F5FFF
:1051D000D7CF5523B1F0F601341708F0FD0131E0C7
:1051E0003483EE15FF0509F49ECF921305C0EA172C
:1051F000FB0711F49F5F937098012F5F3F4F23705F
:1052000090CFE0E0F0E0F8CF50E031112FC0B301D3
:1052100002C0660F771F2A95E2F7CB010197481766
:10522000590799F4C4010E9483070FC050E031115F
:105230001DC0D30102C0AA0FBB1F2A95E2F79D0132
:10524000215031092417350709F080E0F30102C02D
:10525000EE0FFF1FCA94E2F76F01C094D7011696B4
:105260009C9116979C2116969C930DCFCA010C2CED
:1052700002C0959587950A94E2F79A012150310969
:1052800024233523232B39F580FF25C0F7018281A4
:105290009381892BD9F087E0FE013196DF011D92C1
:1052A0008A95E9F70E9493089C018B839C8384E094
:1052B0008D83F70192818381792F9887898709816E
:1052C0001A8144E05E816F810E94EF25D701159617
:1052D0001C9281E0BBCF8170B9CF80E0D4CE909199
:1052E000C0048091C104981309C00E945A261092EC
:1052F0002C0510922B050E94720733CE0E94A12626
:1053000030CE9091C1048091C004981729F00E947A
:10531000A1264110FACE25CE0E945A2610922C05C5
:1053200010922B050E947207F4CFA6E0B0E0EBE9E3
:10533000F9E20C946F350E9493088C0180913A0336
:1053400090913B038017910779F019821A820E948D
:105350009308BC0149815A8180E090E00E94532764
:1053600010933B0300933A032696E4E00C948B35AC
:10537000A6E0B0E0EEEBF9E20C94713590933703C0
:1053800080933603811520E2920730F40E94AF0E1D
:105390002696E2E00C948D3580EF89838A830E9403
:1053A00093088160BC0149815A8181E091E00E94AB
:1053B0005327EECFA6E0B0E0E0EEF9E20C947135B1
:1053C0009093370380933603811520E2920730F4DF
:1053D0000E94FF0E2696E2E00C948D3580EF8983C3
:1053E0008A830E9493088160BC0149815A8181E0CF
:1053F00090E00E945327EECFCF93DF93D82FC92F91
:105400000E94B82980914D0590914E050E947D0B18
:105410008D2F9C2F0E94DA29DF91CF9108950F9351
:105420001F93CF93DF938C01862F6BEC73E00E9468
:105430000919892BB1F4C091CB03D091CC032097EB
:1054400081F0F8018281833051F4CE010E94FC2961
:10545000CE010E94FC29CE010E94FC2902C08430AA
:10546000D0F7DF91CF911F910F9108950F931F9364
:10547000CF93DF938C01EB016BEC73E08C2F0E94D8
:105480000919892B09F05AC0FE01FF27D80112968D
:105490008C911297E152FD4F8130A9F415968C91B1
:1054A00082FD51C080FF4FC082E080838091CD0398
:1054B0009091CE030097B9F48091CB039091CC03E7
:1054C0000097E1F110C08230B9F515968C9182FDFC
:1054D00028C080FD0BC083E080838091CF03909132
:1054E000D003009701F10E94B82928C084E080838E
:1054F0008091D1039091D2030097A9F78091CB03BB
:105500009091CC03009711F10E94FC298091CD036A
:105510009091CE03009739F78091CB039091CC0303
:10552000E2CF85E080838091CB039091CC030097FC
:1055300029F00E94FC29F0CF86E08083DF91CF9193
:105540001F910F91089581E08083B6CF8091CD03A4
:105550009091CE03B5CF0F931F93CF93DF938C0120
:10556000EB016BEC73E08C2F0E940919892BA1F4DD
:1055700080914D0590914E050E947D0BDD27C15213
:10558000DD4F8881F801128218828330F1F048F4EF
:10559000813059F0823081F0DF91CF911F910F91CE
:1055A00008958430B9F08530B9F78091CB0390919C
:1055B000CC03009789F306C08091CD039091CE0370
:1055C000009799F30E94DA29E7CF8091CF03909159
:1055D000D003F6CF8091D1039091D203009791F739
:1055E0002091CB033091CC038091CD039091CE03D9
:1055F00021153105F1F2009729F7C901E3CFCDB7A5
:10560000DEB7AE970FB6F894DEBF0FBECDBF85B73D
:10561000806885BF85B7806885BF84B7877F84BF72
:105620000FB6F894A895809160008861809360001F
:10563000109260000FBE80E890E00FB6F89480935F
:105640006100909361000FBE8CE896E09093910109
:10565000809390010E94B4060E943E180E94821816
:105660000E94D50C0E94B30A0E94220B8091E20096
:1056700084608093E200789480911703882399F0E6
:105680008091E9001091EC001795112717958F7004
:10569000182B1092E9008091E80083FD0E94CB1046
:1056A0001F701093E90082E084BD93E095BD9AEFEE
:1056B00097BD80936E0010923203109233031092C4
:1056C0003403109235030E94BF0D811102C00E9465
:1056D0002E1888EC90E02091E30027FDBDC6AFE3D3
:1056E000BCE91197F1F700C000000197009799F706
:1056F0000E94B30A109217031092300310923103E4
:1057000010920001809100018091000191E08927B1
:10571000880F880F8093F00294E0981B9093EF021B
:1057200083E90E948E0684E90E948E0684E30E942B
:105730008E0684EF0E948E0601E511E0A7E5EA2EB1
:10574000A1E0FA2EF80181918F018F3F11F00E94A4
:105750008E06E016F106B1F788E0EDE0F3E0DF0138
:10576000282F1D922A95E9F7E7EEF2E0DF011D925E
:105770008A95E9F780E090E00E94E335863E9E4FEF
:1057800021F40E94BF0D811168C066EE7EEF80E0BB
:1057900090E00E94173660E082E090E00E94F935C8
:1057A00081E080932D0561E083E090E00E94F9356F
:1057B00060E074E184E090E00E94173660E086E0EB
:1057C00090E00E94F9356FEF87E090E00E94F93594
:1057D00040E050E0BA0188E090E00E940B3660E0C3
:1057E00084E290E00E94F93560E087E190E00E9459
:1057F000F93560E08CE090E00E94F93560E08DE0E2
:1058000090E00E94F93519821A821B821C821D8247
:105810001E821F82188648E050E068E170E0CE01E9
:1058200001960E94E93540E050E0BA0180E290E044
:105830000E940B3680E00E949A0C0E942E1840E0D5
:1058400050E0BA018FE090E00E940B3640E050E05B
:10585000BA0183E190E00E940B3682E090E00E9462
:10586000DB358093F30284E090E00E94E33590936F
:105870005405809353050E941315EFEFF6E721E0DE
:10588000E150F0402040E1F700C000000E941315F5
:1058900080910D0380FF08C06FEF7FEF80E090E004
:1058A0000E9417360E948B0B83E090E00E94DB354C
:1058B0000E9493038091300381110CC00E94013437
:1058C0000E943909609304037093050380930603D3
:1058D0009093070381E091E090935D0380935C03D4
:1058E000E5E12E2EE3E03E2EFCEF4F2EF2E05F2EA0
:1058F00080911703853049F480911703853009F4AE
:1059000050C00E94E50F0E94D5070E94131504EFB6
:1059100012E07DE0E72E73E0F72ED701F8019191B8
:105920008D914E165F0609F48CC09817C1F38090D4
:105930003003D12CD701CD907D01F80191908F01DA
:105940009C1441F19C24B12CAA24A3948A2D892172
:105950008823C1F08820B1F0B982DA820E949308CE
:105960009C838B83F1E0FD8391E08A2D8C21811152
:1059700001C090E09E8349815A816B817C818D8139
:105980000E945327B394AA0C26E0B212DFCFF8018D
:105990003197C082D39438E0D312CCCF0E945609FD
:1059A00054C080911703843021F11092F10248E134
:1059B00050E080E40FB6F894A895409360000FBEC5
:1059C0008093600083B7817F846083BF83B78160E9
:1059D00083BF7894889583B78E7F83BF0FB6F89482
:1059E000A8958091600088618093600010926000AB
:1059F0000FBE8091F202882309F47ECF0E94131516
:105A0000EDE0F3E08191811104C02E163F06D1F73D
:105A100073CF80E189BD82E189BD09B400FEFDCF6D
:105A20008091D8008F7D8093D8008091E0008260C3
:105A30008093E0008091E00081FDFCCF0E94E50FA3
:105A40005BCF981374CF0E949529809130038823EF
:105A500009F4ABC00091DA031091DB0301151105C5
:105A6000C1F18091000390910103A0910203B091D4
:105A70000303BC01CD010E9498096BA77CA78DA7E9
:105A80009EA78091FC029091FD02A091FE02B09130
:105A9000FF022BA53CA54DA55EA5281739074A078F
:105AA0005B07B8F0C8010E94AF0E1092DB031092A2
:105AB000DA03109200031092010310920203109275
:105AC00003031092FC021092FD021092FE0210924B
:105AD000FF02E090E203F090E303E114F10409F126
